{
  "contractName": "TwitterPost",
  "abi": [
    {
      "constant": true,
      "inputs": [
        {
          "name": "",
          "type": "uint256"
        },
        {
          "name": "_content",
          "type": "bytes32"
        },
        {
          "name": "_index",
          "type": "uint256"
        }
      ],
      "name": "posts",
      "outputs": [
        {
          "name": "author",
          "type": "bytes32"
        },
        {
          "name": "content",
          "type": "bytes32"
        }
      ],
      "payable": false,
      "stateMutability": "view",
      "type": "function"
    },
    {
      "constant": false,
      "inputs": [
        {
          "name": "_author",
          "type": "bytes32"
        },
        {
          "name": "_content",
          "type": "bytes32"
        }
      ],
      "name": "kill",
      "outputs": [
        {
          "name": "success",
          "type": "bool"
        },
        {
          "name": "content",
          "type": "bytes32"
        }
      ],
      "payable": false,
      "stateMutability": "nonpayable",
      "type": "function"
    },
    {
      "constant": true,
      "inputs": [],
      "name": "getPosts",
      "outputs": [
        {
          "name": "",
          "type": "bytes32[]"
        },
        {
          "name": "",
          "type": "bytes32[]"
        }
      ],
      "payable": false,
      "stateMutability": "view",
      "type": "function"
    },
    {
      "constant": false,
      "inputs": [
        {
          "name": "_author",
          "type": "bytes32"
        },
        {
          "name": "_content",
          "type": "bytes32"
        }
      ],
      "name": "addPost",
      "outputs": [
        {
          "name": "success",
          "type": "bool"
        },
        {
          "name": "",
          "type": "bytes32[]"
        }
      ],
      "payable": true,
      "stateMutability": "payable",
      "type": "function"
    },
    {
      "constant": true,
      "inputs": [
        {
          "name": "_author",
          "type": "bytes32"
        },
        {
          "name": "_content",
          "type": "bytes32"
        }
      ],
      "name": "owner",
      "outputs": [
        {
          "name": "",
          "type": "address"
        }
      ],
      "payable": false,
      "stateMutability": "view",
      "type": "function"
    },
    {
      "constant": false,
      "inputs": [
        {
          "name": "newOwner",
          "type": "address"
        }
      ],
      "name": "transferOwnership",
      "outputs": [
        {
          "name": "",
          "type": "address"
        }
      ],
      "payable": false,
      "stateMutability": "nonpayable",
      "type": "function"
    },
    {
      "constant": false,
      "inputs": [
        {
          "name": "_author",
          "type": "bytes32"
        },
        {
          "name": "_content",
          "type": "bytes32"
        },
        {
          "name": "_index",
          "type": "uint8"
        }
      ],
      "name": "updatePost",
      "outputs": [
        {
          "name": "success",
          "type": "bool"
        }
      ],
      "payable": true,
      "stateMutability": "payable",
      "type": "function"
    },
    {
      "anonymous": false,
      "inputs": [
        {
          "indexed": false,
          "name": "author",
          "type": "bytes32"
        },
        {
          "indexed": false,
          "name": "content",
          "type": "bytes32"
        }
      ],
      "name": "ADD_POST",
      "type": "event"
    },
    {
      "anonymous": false,
      "inputs": [
        {
          "indexed": false,
          "name": "author",
          "type": "bytes32"
        },
        {
          "indexed": false,
          "name": "content",
          "type": "bytes32"
        },
        {
          "indexed": false,
          "name": "index",
          "type": "uint256"
        }
      ],
      "name": "UPDATE_POST",
      "type": "event"
    }
  ],
  "bytecode": "0x6060604052336000806101000a81548173ffffffffffffffffffffffffffffffffffffffff021916908373ffffffffffffffffffffffffffffffffffffffff160217905550610825806100536000396000f300606060405260043610610083576000357c0100000000000000000000000000000000000000000000000000000000900463ffffffff1680630b1e7f831461008857806341c0e1b5146100d657806341f3004a146100eb5780636c89be151461019d5780638da5cb5b146101de578063f2fde38b14610233578063f68336cd1461026c575b600080fd5b341561009357600080fd5b6100a960048080359060200190919050506102b9565b60405180836000191660001916815260200182600019166000191681526020019250505060405180910390f35b34156100e157600080fd5b6100e96102ec565b005b34156100f657600080fd5b6100fe61037d565b604051808060200180602001838103835285818151815260200191508051906020019060200280838360005b8381101561014557808201518184015260208101905061012a565b50505050905001838103825284818151815260200191508051906020019060200280838360005b8381101561018757808201518184015260208101905061016c565b5050505090500194505050505060405180910390f35b6101c4600480803560001916906020019091908035600019169060200190919050506104c0565b604051808215151515815260200191505060405180910390f35b34156101e957600080fd5b6101f1610599565b604051808273ffffffffffffffffffffffffffffffffffffffff1673ffffffffffffffffffffffffffffffffffffffff16815260200191505060405180910390f35b341561023e57600080fd5b61026a600480803573ffffffffffffffffffffffffffffffffffffffff169060200190919050506105be565b005b61029f6004808035600019169060200190919080356000191690602001909190803560ff1690602001909190505061068e565b604051808215151515815260200191505060405180910390f35b6001818154811015156102c857fe5b90600052602060002090600202016000915090508060000154908060010154905082565b6000809054906101000a900473ffffffffffffffffffffffffffffffffffffffff1673ffffffffffffffffffffffffffffffffffffffff163373ffffffffffffffffffffffffffffffffffffffff16141561037b576000809054906101000a900473ffffffffffffffffffffffffffffffffffffffff1673ffffffffffffffffffffffffffffffffffffffff16ff5b565b610385610764565b61038d610764565b6000610397610764565b61039f610764565b60006103a9610778565b6001805490509450846040518059106103bf5750595b90808252806020026020018201604052509350846040518059106103e05750595b90808252806020026020018201604052509250600091505b848210156104b15760018281548110151561040f57fe5b9060005260206000209060020201604080519081016040529081600082015460001916600019168152602001600182015460001916600019168152505090508060000151848381518110151561046157fe5b9060200190602002019060001916908160001916815250508060200151838381518110151561048c57fe5b90602001906020020190600019169081600019168152505081806001019250506103f8565b83839650965050505050509091565b60006104ca610778565b83816000019060001916908160001916815250508281602001906000191690816000191681525050600180548060010182816105069190610798565b9160005260206000209060020201600083909190915060008201518160000190600019169055602082015181600101906000191690555050507f37a3c1180bf57ea2d0320a89d4c78ff4cd4084b43f162af79f1bdd888c527947848460405180836000191660001916815260200182600019166000191681526020019250505060405180910390a1600191505092915050565b6000809054906101000a900473ffffffffffffffffffffffffffffffffffffffff1681565b6000809054906101000a900473ffffffffffffffffffffffffffffffffffffffff1673ffffffffffffffffffffffffffffffffffffffff163373ffffffffffffffffffffffffffffffffffffffff16141561068b57600073ffffffffffffffffffffffffffffffffffffffff168173ffffffffffffffffffffffffffffffffffffffff1614151561068a57806000806101000a81548173ffffffffffffffffffffffffffffffffffffffff021916908373ffffffffffffffffffffffffffffffffffffffff1602179055505b5b50565b600060018080549050038260ff1611156106a757600080fd5b8360018360ff168154811015156106ba57fe5b906000526020600020906002020160000181600019169055508260018360ff168154811015156106e657fe5b906000526020600020906002020160010181600019169055507fceb4c70ab0d9cc245dc4152546ed8e8941436d9d6552bcf11606cd35b27a440884848460405180846000191660001916815260200183600019166000191681526020018260ff168152602001935050505060405180910390a1600190509392505050565b602060405190810160405280600081525090565b604080519081016040528060008019168152602001600080191681525090565b8154818355818115116107c5576002028160020283600052602060002091820191016107c491906107ca565b5b505050565b6107f691905b808211156107f2576000808201600090556001820160009055506002016107d0565b5090565b905600a165627a7a72305820a830b6a3b30ee5ed337a2b5df633dfe5d12fd205418e79aba2e999c393b2f0100029",
  "source": "pragma solidity ^0.4.2;\n\nimport './zeppelin/lifecycle/Killable.sol';\n\ncontract TwitterPost is Killable {\n  Post[] public posts;\n\n  event ADD_POST(bytes32 author, bytes32 content);\n  event UPDATE_POST(bytes32 author, bytes32 content, uint index);\n\n  struct Post {\n    bytes32 author;\n    bytes32 content;\n  }\n\n  function addPost(bytes32 _author, bytes32 _content) payable returns (bool success) {\n    Post memory newPost;\n    newPost.author = _author;\n    newPost.content = _content;\n    posts.push(newPost);\n\n    ADD_POST(_author, _content);\n    return true;\n  }\n\n  function updatePost(bytes32 _author, bytes32 _content, uint8 _index) payable returns (bool success) {\n    if(_index > posts.length - 1) {\n      revert(); // handle non-existent index\n    }\n\n    posts[_index].author = _author;\n    posts[_index].content = _content;\n\n    UPDATE_POST(_author, _content, _index);\n    return true;\n  }\n\n  function getPosts() constant public returns (bytes32[], bytes32[]) {\n    uint postsLength = posts.length;\n\n    bytes32[] memory authors = new bytes32[](postsLength);\n    bytes32[] memory contents = new bytes32[](postsLength);\n\n    for (uint i = 0; i < postsLength; i++) {\n      Post memory currentPost = posts[i];\n      authors[i] = currentPost.author;\n      contents[i] = currentPost.content;\n    }\n\n    return (authors, contents);\n  }\n}\n",
  "sourcePath": "/Users/rbeaman/projects/tryingTruffleTwitter/contracts/TwitterPost.sol",
  "compiler": {
    "name": "solc",
    "version": "0.4.18+commit.9cf6e910.Emscripten.clang"
  },
  "schemaVersion": "1.0.1",
  "updatedAt": "2017-11-10T16:09:04.080Z"
}